:100000000C942A000C943F000C943F000C943F0089
:100010000C943F000C943F000C943F000C943F0064
:100020000C943F000C943F000C943F000C943F0054
:100030000C943F000C943F000C943F000C943F0044
:100040000C943F000C943F000C943F000C943F0034
:100050000C943F0011241FBECFE5D8E0DEBFCDBF1A
:1000600010E0A0E6B0E0EEE0F1E502C005900D92F0
:10007000AE3EB107D9F70E9470210C9485280C94EC
:100080000000EF92FF920F931F937B018C0120E001
:1000900030E040E05FE40E94410388238CF0C80117
:1000A000B70120E030E040E05FE40E94B9010E9427
:1000B000A1039B01AC01205030404040504806C095
:1000C000C801B7010E94A1039B01AC01B901CA019B
:1000D0001F910F91FF90EF900895A0E0B0E0E3E74B
:1000E000F0E00C944E28DC012B01FA019C91923037
:1000F00008F439C1EB018881823008F433C19430AF
:1001000069F4843009F02FC111969C91119789816F
:10011000981709F428C1ACE7B0E025C1843009F490
:1001200021C18230A9F4923009F01DC19A01AD01BC
:1001300088E0EA010990AE01E90109929E0181502F
:10014000C1F7E201898111969C918923818308C1BD
:10015000923009F407C112962D903C901397EB0151
:100160008A819B811496AD90BD90CD90DC901797BD
:10017000EC80FD800E811F819101281B390BB90194
:1001800037FF04C066277727621B730B6032710547
:100190000CF061C0121613066CF537014801062EEB
:1001A00004C096948794779467940A94D2F721E0D8
:1001B00030E040E050E004C0220F331F441F551FC1
:1001C0006A95D2F721503040404050402E213F21C7
:1001D00040235123211531054105510521F021E02E
:1001E00030E040E050E079018A01E628F72808294C
:1001F00019293CC0232BD1F1260E371E35014601AB
:10020000062E04C096948794779467940A94D2F744
:1002100021E030E040E050E004C0220F331F441FD3
:10022000551F6A95D2F721503040404050402A2156
:100230003B214C215D21211531054105510521F05E
:1002400021E030E040E050E059016A01A628B728DB
:10025000C828D9280BC0821593052CF01C01AA24AC
:10026000BB24650103C0EE24FF24870111969C91F5
:10027000D20111968C91981709F445C0992339F051
:10028000A80197012A193B094C095D0906C0A6017E
:1002900095012E193F09400B510B57FD08C01182E3
:1002A0003382228224833583468357831DC081E0B5
:1002B00081833382228288279927DC01821B930B5A
:1002C000A40BB50B84839583A683B7830DC0220F3F
:1002D000331F441F551F24833583468357838281F0
:1002E000938101979383828324813581468157814D
:1002F000DA01C9010197A109B1098F5F9F4FAF4F83
:10030000BF4328F30BC0918333822282EA0CFB1C8B
:100310000C1D1D1DE482F5820683178383E0808314
:10032000248135814681578157FF1AC0C901AA2708
:1003300097FDA095BA2F81709070A070B0705695FF
:10034000479537952795822B932BA42BB52B848328
:100350009583A683B7838281938101969383828359
:10036000DF0101C0D201CD01CDB7DEB7E2E10C94CF
:100370006A28A0E2B0E0EFEBF1E00C945A28698320
:100380007A838B839C832D833E834F835887E9E058
:10039000EE2EF12CEC0EFD1ECE010196B7010E944F
:1003A000CA048E010F5E1F4FCE010596B8010E9450
:1003B000CA048A8991E089278A8BC701B801AE01F6
:1003C000475E5F4F0E946D000E94F503A096E6E035
:1003D0000C947628A0E2B0E0E0EFF1E00C945A280B
:1003E00069837A838B839C832D833E834F835887D5
:1003F000F9E0EF2EF12CEC0EFD1ECE010196B701B7
:100400000E94CA048E010F5E1F4FCE010596B801EF
:100410000E94CA04C701B801AE01475E5F4F0E9447
:100420006D000E94F503A096E6E00C947628A0E209
:10043000B0E0EDE1F2E00C944E2869837A838B837F
:100440009C832D833E834F835887CE010196BE0146
:10045000675F7F4F0E94CA04CE010596BE016F5EA2
:100460007F4F0E94CA049985923088F08989823032
:10047000C8F0943019F4823051F404C0843029F467
:10048000923081F48CE790E0C6C0923049F420E0CD
:100490009A858A89981321E02A87CE010996BBC0E4
:1004A000823049F420E09A858A89981321E02A8BCA
:1004B000CE014196B0C02D843E844F8458886D880B
:1004C0007E888F88988CEE24FF248701AA24BB2481
:1004D000650140E050E060E070E0E0E0F0E0C10184
:1004E00081709070892BE9F0E60CF71C081D191D2E
:1004F0009A01AB012A0D3B1D4C1D5D1D80E090E073
:10050000A0E0B0E0E614F7040805190520F481E046
:1005100090E0A0E0B0E0BA01A901480F591F6A1F9E
:100520007B1FAA0CBB1CCC1CDD1C97FE08C081E005
:1005300090E0A0E0B0E0A82AB92ACA2ADB2A3196C6
:10054000E032F10549F0660C771C881C991C569422
:10055000479437942794C3CFFA85EA892B893C893D
:100560008B859C85280F391F2E5F3F4F17C0CA010E
:1005700081709070892B61F016950795F794E79438
:1005800080E090E0A0E0B0E8E82AF92A0A2B1B2BD3
:1005900076956795579547952F5F3F4F77FDE7CF46
:1005A0000CC0440F551F661F771F17FD4160EE0CEE
:1005B000FF1C001F111F21503040403090E05907B0
:1005C00090E0690790E4790760F32B8F3C8FDB01A3
:1005D000CA018F779070A070B07080349105A1052A
:1005E000B10561F447FD0AC0E114F10401051105EC
:1005F00029F0405C5F4F6F4F7F4F40781A8EFE1797
:1006000011F081E08A8F4D8F5E8F6F8F78A383E02A
:10061000898FCE0149960E94F503A096E2E10C94E1
:100620006A28A8E1B0E0E7E1F3E00C945A28698376
:100630007A838B839C832D833E834F83588789E005
:10064000E82EF12CEC0EFD1ECE010196B7010E94A2
:10065000CA048E010F5E1F4FCE010596B8010E949D
:10066000CA048985823040F08989823028F0C70128
:10067000B8010E94420501C08FEF6896E6E00C9435
:100680007628A8E1B0E0E7E4F3E00C945A28698307
:100690007A838B839C832D833E834F83588789E0A5
:1006A000E82EF12CEC0EFD1ECE010196B7010E9442
:1006B000CA048E010F5E1F4FCE010596B8010E943D
:1006C000CA048985823040F08989823028F0C701C8
:1006D000B8010E94420501C08FEF6896E6E00C94D5
:1006E0007628A8E1B0E0E7E7F3E00C945A286983A4
:1006F0007A838B839C832D833E834F83588789E045
:10070000E82EF12CEC0EFD1ECE010196B7010E94E1
:10071000CA048E010F5E1F4FCE010596B8010E94DC
:10072000CA048985823040F08989823028F0C70167
:10073000B8010E94420501C081E06896E6E00C9491
:100740007628ACE0B0E0E7EAF3E00C945E28698339
:100750007A838B839C83CE010196BE016B5F7F4FB2
:100760000E94CA048D81823061F1823050F1843060
:1007700021F48E81882351F12EC02F81388537FDD9
:1007800020C06E812F3131051CF06623F9F023C0A3
:100790008EE190E0821B930B29853A854B855C8521
:1007A00004C056954795379527958A95D2F76623C5
:1007B000B1F050954095309521953F4F4F4F5F4F89
:1007C0000EC020E030E040E050E009C02FEF3FEFE6
:1007D0004FEF5FE704C020E030E040E050E8B901AF
:1007E000CA012C96E2E00C947A28DF92EF92FF92F5
:1007F0000F931F93FC01E480F58006811781D1805F
:100800008081823048F480E090E0A0E1B0E0E82A06
:10081000F92A0A2B1B2BA5C0843009F49FC0823013
:1008200021F4EE24FF24870105C0E114F104010541
:10083000110519F4E0E0F0E096C0628173819FEF4A
:10084000623879070CF05BC022E83FEF261B370BBC
:100850002A3131052CF020E030E040E050E02AC0A1
:10086000B801A701022E04C0769567955795479564
:100870000A94D2F781E090E0A0E0B0E004C0880FD5
:10088000991FAA1FBB1F2A95D2F70197A109B10989
:100890008E219F21A023B1230097A105B10521F04E
:1008A00081E090E0A0E0B0E09A01AB01282B392B69
:1008B0004A2B5B2BDA01C9018F779070A070B07062
:1008C00080349105A105B10539F427FF09C0205CEA
:1008D0003F4F4F4F5F4F04C0215C3F4F4F4F5F4F23
:1008E000E0E0F0E02030A0E03A07A0E04A07A0E412
:1008F0005A0710F0E1E0F0E079018A0127C0603882
:10090000710564F5FB01E158FF4FD801C7018F77EE
:100910009070A070B07080349105A105B10539F4D4
:10092000E7FE0DC080E490E0A0E0B0E004C08FE3FB
:1009300090E0A0E0B0E0E80EF91E0A1F1B1F17FFB1
:1009400005C016950795F794E794319687E01695BC
:100950000795F794E7948A95D1F705C0EE24FF2414
:100960008701EFEFF0E06E2F679566276795902F70
:100970009F77D794DD24D7948E2F8695492F462BC9
:10098000582F5D29B701CA011F910F91FF90EF9079
:10099000DF900895FC01DB01408151812281622FAB
:1009A0006F7770E0221F2227221F9381892F880FE3
:1009B000822B282F30E0991F9927991F11969C931D
:1009C000119721153105A9F54115510561057105ED
:1009D00011F482E037C082E89FEF13969C938E93C8
:1009E00012979A01AB0167E0220F331F441F551F76
:1009F0006A95D1F783E08C930DC0220F331F441FFB
:100A0000551F12968D919C911397019713969C9365
:100A10008E931297203080E0380780E0480780E40A
:100A2000580758F314962D933D934D935C93179765
:100A300008952F3F310579F4411551056105710580
:100A400019F484E08C93089564FF03C081E08C93D3
:100A500012C01C9210C02F57304013963C932E9317
:100A6000129783E08C9387E0440F551F661F771F12
:100A70008A95D1F7706414964D935D936D937C9332
:100A8000179708951F93DC01FB019C91923008F4A5
:100A900047C08081823008F443C0943051F41196ED
:100AA0001C91843099F58181682F70E0611B710978
:100AB0003FC0843021F0923031F48230B9F181812D
:100AC000882389F12DC011961C9111978230F1F085
:100AD00081811817D9F412962D913C911397828138
:100AE00093818217930794F028173907BCF0149666
:100AF0008D919D910D90BC91A02D248135814681D1
:100B00005781281739074A075B0718F4112341F06A
:100B10000AC082179307A407B50740F4112319F000
:100B200061E070E005C06FEF7FEF02C060E070E051
:100B3000CB011F910895DF93CF93CDB7DEB781E04E
:100B40006FEF0E94E40882E06FEF0E94E40883E008
:100B500060E40E94E40884E06FEF0E94E408CF9113
:100B6000DF910895DF93CF93CDB7DEB727970FB608
:100B7000F894DEBF0FBECDBF89836A834B83898122
:100B8000853008F0F4C08981882309F4F0C08A8197
:100B9000883008F0ECC08B81813009F070C0898109
:100BA000282F30E03F832E838E819F8182309105F4
:100BB00051F12E813F812330310534F48E819F81A4
:100BC0008130910561F0D3C02E813F812330310502
:100BD00071F18E819F8184309105E9F1C8C0AAE34B
:100BE000B0E0EAE3F0E08081482F8A81282F30E0EE
:100BF00081E090E0022E02C0880F991F0A94E2F76C
:100C0000842B8C93B4C0A7E3B0E0E7E3F0E08081ED
:100C1000482F8A81282F30E081E090E0022E02C028
:100C2000880F991F0A94E2F7842B8C93A0C0A4E349
:100C3000B0E0E4E3F0E08081482F8A81282F30E0A3
:100C400081E090E0022E02C0880F991F0A94E2F71B
:100C5000842B8C938CC0A1E3B0E0E1E3F0E08081D1
:100C6000482F8A81282F30E081E090E0022E02C0D8
:100C7000880F991F0A94E2F7842B8C9378C08B819C
:100C8000882309F074C08981282F30E03D832C83AC
:100C90008C819D818230910561F12C813D812330D1
:100CA000310534F48C819D818130910569F05FC0FC
:100CB0002C813D812330310589F18C819D818430E7
:100CC000910509F440C053C0AAE3B0E0EAE3F0E0C4
:100CD0008081482F8A81282F30E081E090E0022E29
:100CE00002C0880F991F0A94E2F7809584238C93A1
:100CF0003EC0A7E3B0E0E7E3F0E08081482F8A81BF
:100D0000282F30E081E090E0022E02C0880F991F6A
:100D10000A94E2F7809584238C9329C0A4E3B0E081
:100D2000E4E3F0E08081482F8A81282F30E081E0E1
:100D300090E0022E02C0880F991F0A94E2F7809576
:100D400084238C9314C0A1E3B0E0E1E3F0E0808160
:100D5000482F8A81282F30E081E090E0022E02C0E7
:100D6000880F991F0A94E2F7809584238C93279625
:100D70000FB6F894DEBF0FBECDBFCF91DF910895BF
:100D8000DF93CF93CDB7DEB727970FB6F894DEBFCA
:100D90000FBECDBF89836A834B838981853008F07C
:100DA000F4C08981882309F4F0C08A81883008F072
:100DB000ECC08B81813009F070C08981282F30E030
:100DC0003F832E838E819F818230910551F12E8148
:100DD0003F812330310534F48E819F81813091052C
:100DE00061F0D3C02E813F812330310571F18E81B6
:100DF0009F8184309105E9F1C8C0ABE3B0E0EBE33B
:100E0000F0E08081482F8A81282F30E081E090E057
:100E1000022E02C0880F991F0A94E2F7842B8C934C
:100E2000B4C0A8E3B0E0E8E3F0E08081482F8A8115
:100E3000282F30E081E090E0022E02C0880F991F39
:100E40000A94E2F7842B8C93A0C0A5E3B0E0E5E31D
:100E5000F0E08081482F8A81282F30E081E090E007
:100E6000022E02C0880F991F0A94E2F7842B8C93FC
:100E70008CC0A2E3B0E0E2E3F0E08081482F8A81F9
:100E8000282F30E081E090E0022E02C0880F991FE9
:100E90000A94E2F7842B8C9378C08B81882309F025
:100EA00074C08981282F30E03D832C838C819D8103
:100EB0008230910561F12C813D812330310534F47C
:100EC0008C819D818130910569F05FC02C813D81CD
:100ED0002330310589F18C819D818430910509F49D
:100EE00040C053C0ABE3B0E0EBE3F0E08081482FBB
:100EF0008A81282F30E081E090E0022E02C0880F26
:100F0000991F0A94E2F7809584238C933EC0A8E34E
:100F1000B0E0E8E3F0E08081482F8A81282F30E0BC
:100F200081E090E0022E02C0880F991F0A94E2F738
:100F3000809584238C9329C0A5E3B0E0E5E3F0E03D
:100F40008081482F8A81282F30E081E090E0022EB6
:100F500002C0880F991F0A94E2F7809584238C932E
:100F600014C0A2E3B0E0E2E3F0E08081482F8A8180
:100F7000282F30E081E090E0022E02C0880F991FF8
:100F80000A94E2F7809584238C9327960FB6F89401
:100F9000DEBF0FBECDBFCF91DF910895DF93CF931A
:100FA00000D000D00F92CDB7DEB789836A838981E4
:100FB000853008F074C08981882309F470C08A8163
:100FC000883008F06CC08981282F30E03D832C8365
:100FD0004C815D814230510549F18C819D81833086
:100FE000910534F42C813D812130310561F057C0E9
:100FF0004C815D814330510561F18C819D8184304C
:101000009105D1F14CC0E9E3F0E08081282F30E078
:101010008A81882F90E0A90102C0559547958A954D
:10102000E2F7CA01582F51705B833BC0E6E3F0E062
:101030008081282F30E08A81882F90E0A90102C0AA
:10104000559547958A95E2F7CA01582F51705B83F1
:1010500028C0E3E3F0E08081282F30E08A81882FE8
:1010600090E0A90102C0559547958A95E2F7CA011B
:10107000582F51705B8315C0E0E3F0E08081282F8A
:1010800030E08A81882F90E0A90102C055954795EC
:101090008A95E2F7CA01582F51705B8302C08FEF27
:1010A0008B838B810F900F900F900F900F90CF91AB
:1010B000DF910895DF93CF9300D000D0CDB7DEB796
:1010C00089836A838981853008F077C08981882384
:1010D00009F473C08A81883008F06FC08981282F95
:1010E00030E03C832B838B819C818230910551F1D0
:1010F0002B813C812330310534F48B819C818130FC
:10110000910561F05AC02B813C812330310571F18A
:101110008B819C8184309105E9F14FC0ABE3B0E055
:10112000EBE3F0E08081482F8A81282F30E081E0D6
:1011300090E0022E02C0880F991F0A94E2F78427DC
:101140008C933BC0A8E3B0E0E8E3F0E08081482F57
:101150008A81282F30E081E090E0022E02C0880FC3
:10116000991F0A94E2F784278C9327C0A5E3B0E087
:10117000E5E3F0E08081482F8A81282F30E081E08C
:1011800090E0022E02C0880F991F0A94E2F784278C
:101190008C9313C0A2E3B0E0E2E3F0E08081482F3B
:1011A0008A81282F30E081E090E0022E02C0880F73
:1011B000991F0A94E2F784278C930F900F900F9059
:1011C0000F90CF91DF910895DF93CF9300D000D09F
:1011D000CDB7DEB789836A8389818530B0F589818F
:1011E000882399F18981282F30E03C832B838B81E0
:1011F0009C8182309105D9F02B813C8123303105CF
:1012000034F48B819C818130910561F01EC02B816B
:101210003C812330310581F08B819C8184309105A4
:1012200081F013C0EAE3F0E08A8180830EC0E7E337
:10123000F0E08A81808309C0E4E3F0E08A81808362
:1012400004C0E1E3F0E08A8180830F900F900F905B
:101250000F90CF91DF910895DF93CF9300D000D00E
:10126000CDB7DEB789836A8389818530B0F58981FE
:10127000882399F18981282F30E03C832B838B814F
:101280009C8182309105D9F02B813C81233031053E
:1012900034F48B819C818130910561F01EC02B81DB
:1012A0003C812330310581F08B819C818430910514
:1012B00081F013C0EBE3F0E08A8180830EC0E8E3A5
:1012C000F0E08A81808309C0E5E3F0E08A818083D1
:1012D00004C0E2E3F0E08A8180830F900F900F90CA
:1012E0000F90CF91DF910895DF93CF9300D000D07E
:1012F000CDB7DEB7898389818530B8F589818823A8
:10130000A1F18981282F30E03C832B838B819C8144
:1013100082309105D9F02B813C812330310534F4A2
:101320008B819C818130910561F01FC02B813C81B4
:101330002330310581F08B819C818430910581F0CF
:1013400014C0EBE3F0E090819A8311C0E8E3F0E091
:1013500020812A830CC0E5E3F0E030813A8307C0A6
:10136000E2E3F0E080818A8302C09FEF9A838A8162
:101370000F900F900F900F90CF91DF910895DF9312
:10138000CF9300D00F92CDB7DEB7898389818530A6
:1013900008F043C08981882309F43FC08981282F40
:1013A00030E03B832A838A819B8182309105F1F072
:1013B0002A813B812330310534F48A819B8181303D
:1013C000910561F02AC02A813B8123303105B1F0BB
:1013D0008A819B8184309105C9F01FC0ABE3B0E0E6
:1013E000EBE3F0E0808180958C9317C0A8E3B0E038
:1013F000E8E3F0E0808180958C930FC0A5E3B0E036
:10140000E5E3F0E0808180958C9307C0A2E3B0E033
:10141000E2E3F0E0808180958C930F900F900F9025
:10142000CF91DF910895DF93CF93CDB7DEB782E000
:101430006FE70E94E408CF91DF910895DF93CF9387
:10144000CDB7DEB782E06FE70E94E40884E06FE783
:101450000E94E408CF91DF910895DF93CF93CDB739
:10146000DEB760970FB6F894DEBF0FBECDBF8B8797
:10147000CE0101969D878C87EBEAF0E0FF87EE872F
:10148000FAE0F88BEE85FF8500808E859F850196BA
:101490009F878E87EC85FD8500828C859D850196D2
:1014A0009D878C8798899150988BE889EE2351F716
:1014B0008B858A3070F48B85282F30E0CE01019621
:1014C000FC01E20FF31F8081982F82E0692F0E94B8
:1014D0002C0960960FB6F894DEBF0FBECDBFCF913A
:1014E000DF910895DF93CF93CDB7DEB7A1970FB605
:1014F000F894DEBF0FBECDBFCE0143969E8F8D8F79
:10150000E5EBF0E0F8A3EF8FFAE0F9A3EF8DF8A197
:1015100000808F8D98A1019698A38F8FED8DFE8D01
:1015200000828D8D9E8D01969E8F8D8F99A19150F9
:1015300099A3E9A1EE2351F71F86188A198A1A8AFE
:101540001F86188A198A1A8A8DC08F859889A98959
:10155000BA899E012D5E3F4FF901E80FF91F808186
:10156000982F82E0692F0E942C0980E090E0A0E291
:10157000B1E48B879C87AD87BE876B857C858D8525
:101580009E8520E030E04AE755E40E941702DC0126
:10159000CB018F839887A987BA876F8178858985E2
:1015A0009A8520E030E040E85FE30E9471038823E1
:1015B0002CF481E090E09E838D833FC06F8178851D
:1015C00089859A8520E03FEF4FE757E40E94110399
:1015D00018164CF56B857C858D859E8520E030E066
:1015E00040E251E40E941702DC01CB01BC01CD01B5
:1015F0000E944100DC01CB019E838D830FC080E9F6
:1016000091E09C838B838B819C810197F1F79C8374
:101610008B838D819E8101979E838D838D819E8199
:10162000009769F714C06F81788589859A850E9433
:101630004100DC01CB019E838D838D819E819A8345
:10164000898389819A810197F1F79A8389838F85AC
:101650009889A989BA890196A11DB11D8F87988B98
:10166000A98BBA8B8F859889A989BA898A30910507
:10167000A105B1050CF469CFA1960FB6F894DEBFB1
:101680000FBECDBFCF91DF910895DF93CF93CDB73C
:10169000DEB7A5970FB6F894DEBF0FBECDBFCE0163
:1016A00047969AA389A3EFEBF0E0FCA3EBA3FAE043
:1016B000FDA3EBA1FCA100808BA19CA101969CA3A2
:1016C0008BA3E9A1FAA1008289A19AA101969AA30C
:1016D00089A39DA191509DA3EDA1EE2351F71B8AF3
:1016E0001C8A1D8A1E8A1F86188A198A1A8A1B8AD2
:1016F0001C8A1D8A1E8AB7C08B899C89AD89BE89C8
:101700009E01295E3F4FF901E80FF91F8081982F54
:1017100084E0692F0E942C091F86188A198A1A8A68
:101720008DC08F859889A989BA899E01295E3F4F0E
:10173000F901E80FF91F8081982F82E0692F0E943C
:101740002C0980E090E0A0E2B1E48B879C87AD8714
:10175000BE876B857C858D859E8520E030E04AE7DD
:1017600055E40E941702DC01CB018F839887A9877B
:10177000BA876F81788589859A8520E030E040E8D6
:101780005FE30E94710388232CF481E090E09E8344
:101790008D833FC06F81788589859A8520E03FEFF2
:1017A0004FE757E40E94110318164CF56B857C85B2
:1017B0008D859E8520E030E040E251E40E941702D2
:1017C000DC01CB01BC01CD010E944100DC01CB0159
:1017D0009E838D830FC080E991E09C838B838B81F6
:1017E0009C810197F1F79C838B838D819E8101976A
:1017F0009E838D838D819E81009769F714C06F81D0
:10180000788589859A850E944100DC01CB019E8301
:101810008D838D819E819A83898389819A810197A5
:10182000F1F79A8389838F859889A989BA89019666
:10183000A11DB11D8F87988BA98BBA8B8F85988935
:10184000A989BA898A309105A105B1050CF469CF3F
:101850008B899C89AD89BE890196A11DB11D8B8B99
:101860009C8BAD8BBE8B8B899C89AD89BE898A3060
:101870009105A105B1050CF43FCFA5960FB6F894DC
:10188000DEBF0FBECDBFCF91DF910895DF93CF9321
:10189000CDB7DEB7E1970FB6F894DEBF0FBECDBF70
:1018A0008BA76CA7CE0181969EA78DA7E9ECF0E0EF
:1018B000F8ABEFA7FAE0F9ABEFA5F8A900808FA588
:1018C00098A9019698AB8FA7EDA5FEA500828DA5DE
:1018D0009EA501969EA78DA799A9915099ABE9A9BC
:1018E000EE2351F71D8E1E8E1F8E18A28BA5882306
:1018F0000CF464C18BA58A300CF060C18CA58A30D1
:101900000CF05CC18CA588230CF458C19BA58CA558
:1019100098170CF0AAC08BA5992787FD9095A92F41
:10192000B92F8D8F9E8FAF8FB8A38DC08D8D9E8D5B
:10193000AF8DB8A19E012F5D3F4FF901E80FF91F50
:101940008081982F82E0692F0E942C0980E090E02E
:10195000A0E2B1E4898F9A8FAB8FBC8F698D7A8DAD
:101960008B8D9C8D20E030E04AE755E40E94170201
:10197000DC01CB018D8B9E8BAF8BB88F6D897E89FF
:101980008F89988D20E030E040E85FE30E9471038A
:1019900088232CF481E090E09C8B8B8B3FC06D8979
:1019A0007E898F89988D20E03FEF4FE757E40E94B2
:1019B000110318164CF5698D7A8D8B8D9C8D20E066
:1019C00030E040E251E40E941702DC01CB01BC018F
:1019D000CD010E944100DC01CB019C8B8B8B0FC0A1
:1019E00080E991E09A8B898B89899A890197F1F72F
:1019F0009A8B898B8B899C8901979C8B8B8B8B898C
:101A00009C89009769F714C06D897E898F89988DAC
:101A10000E944100DC01CB019C8B8B8B8B899C89C4
:101A2000988B8F878F8598890197F1F7988B8F878F
:101A30008D8D9E8DAF8DB8A10196A11DB11D8D8F8D
:101A40009E8FAF8FB8A38CA5282F332727FD309505
:101A5000432F532F8D8D9E8DAF8DB8A18217930785
:101A6000A407B5070CF462CFA9C08BA5992787FD01
:101A70009095A92FB92F8D8F9E8FAF8FB8A38DC052
:101A80008D8D9E8DAF8DB8A19E012F5D3F4FF901C9
:101A9000E80FF91F8081982F82E0692F0E942C099E
:101AA00080E090E0A0E2B1E48B879C87AD87BE87A1
:101AB0006B857C858D859E8520E030E04AE755E486
:101AC0000E941702DC01CB018F839887A987BA8710
:101AD0006F81788589859A8520E030E040E85FE372
:101AE0000E94710388232CF481E090E09E838D8313
:101AF0003FC06F81788589859A8520E03FEF4FE769
:101B000057E40E94110318164CF56B857C858D8572
:101B10009E8520E030E040E251E40E941702DC01A3
:101B2000CB01BC01CD010E944100DC01CB019E83B1
:101B30008D830FC080E991E09C838B838B819C8196
:101B40000197F1F79C838B838D819E8101979E8302
:101B50008D838D819E81009769F714C06F81788590
:101B600089859A850E944100DC01CB019E838D838B
:101B70008D819E819A83898389819A810197F1F76A
:101B80009A8389838D8D9E8DAF8DB8A10197A10910
:101B9000B1098D8F9E8FAF8FB8A38CA5282F3327C7
:101BA00027FD3095432F532F8D8D9E8DAF8DB8A17E
:101BB00082179307A407B5070CF062CFE1960FB622
:101BC000F894DEBF0FBECDBFCF91DF910895DF93B4
:101BD000CF93CDB7DEB7E9970FB6F894DEBF0FBE4F
:101BE000CDBF8BAB6CABCE0189969EAB8DABE3EDDD
:101BF000F0E0F8AFEFABFAE0F9AFEFA9F8AD008095
:101C00008FA998AD019698AF8FABEDA9FEA9008280
:101C10008DA99EA901969EAB8DAB99AD915099AFC0
:101C2000E9ADEE2351F78BA99AE0692F0E94F827BE
:101C300088A78BA99AE0692F0E94F827892F8FA384
:101C40008CA99AE0692F0E94F8278EA38CA99AE0AC
:101C5000692F0E94F827892F8DA319A21AA21BA20F
:101C60001CA21D8E1E8E1F8E18A288A588230CF420
:101C700005C288A58A300CF001C28EA18A300CF012
:101C8000FDC18EA188230CF4F9C19BA98CA99817DA
:101C90000CF0FCC088A5992787FD9095A92FB92F36
:101CA00089A39AA3ABA3BCA3DFC089A19AA1ABA1CE
:101CB000BCA19E01275D3F4FF901E80FF91F80810C
:101CC000982F84E0692F0E942C098FA1992787FD06
:101CD0009095A92FB92F8D8F9E8FAF8FB8A3AEC0CF
:101CE0008D8D9E8DAF8DB8A19E01275D3F4FF9016F
:101CF000E80FF91F8081982F82E0692F0E942C093C
:101D000080E090E0A0E2B1E4898F9A8FAB8FBC8F26
:101D1000698D7A8D8B8D9C8D20E030E04AE755E40B
:101D20000E941702DC01CB018D8B9E8BAF8BB88F8D
:101D30006D897E898F89988D20E030E040E85FE3EF
:101D40000E94710388232CF481E090E09C8B8B8BA4
:101D50003FC06D897E898F89988D20E03FEF4FE7E6
:101D600057E40E94110318164CF5698D7A8D8B8DFE
:101D70009C8D20E030E040E251E40E941702DC013B
:101D8000CB01BC01CD010E944100DC01CB019C8B49
:101D90008B8B0FC080E991E09A8B898B89899A8916
:101DA0000197F1F79A8B898B8B899C8901979C8B82
:101DB0008B8B8B899C89009769F714C06D897E890C
:101DC0008F89988D0E944100DC01CB019C8B8B8B0D
:101DD0008B899C89988B8F878F8598890197F1F7DC
:101DE000988B8F878DA1282F332727FD3095432F80
:101DF000532F8D8D9E8DAF8DB8A1281739074A07B7
:101E00005B0789F48EA1282F332727FD3095432FB8
:101E1000532F89A19AA1ABA1BCA1281739074A0762
:101E20005B0709F42BC18D8D9E8DAF8DB8A10196F6
:101E3000A11DB11D8D8F9E8FAF8FB8A38D8D9E8DEF
:101E4000AF8DB8A18A309105A105B1050CF448CF3A
:101E50001FA289A19AA1ABA1BCA10196A11DB11D90
:101E600089A39AA3ABA3BCA38EA1282F332727FD58
:101E70003095432F532F89A19AA1ABA1BCA128175C
:101E800039074A075B070CF010CFF8C088A59927DF
:101E900087FD9095A92FB92F89A39AA3ABA3BCA3C3
:101EA000DCC089A19AA1ABA1BCA19E01275D3F4FD7
:101EB000F901E80FF91F8081982F84E0692F0E94B3
:101EC0002C098FA1992787FD9095A92FB92F8D8F68
:101ED0009E8FAF8FB8A3ADC08D8D9E8DAF8DB8A1F5
:101EE0009E01275D3F4FF901E80FF91F8081982F70
:101EF00082E0692F0E942C0980E090E0A0E2B1E42A
:101F00008B879C87AD87BE876B857C858D859E85FD
:101F100020E030E04AE755E40E941702DC01CB01E3
:101F20008F839887A987BA876F81788589859A85F5
:101F300020E030E040E85FE30E94710388232CF446
:101F400081E090E09E838D833FC06F817885898595
:101F50009A8520E03FEF4FE757E40E9411031816DF
:101F60004CF56B857C858D859E8520E030E040E2D8
:101F700051E40E941702DC01CB01BC01CD010E949B
:101F80004100DC01CB019E838D830FC080E991E08D
:101F90009C838B838B819C810197F1F79C838B833E
:101FA0008D819E8101979E838D838D819E81009777
:101FB00069F714C06F81788589859A850E944100F0
:101FC000DC01CB019E838D838D819E819A838983E1
:101FD00089819A810197F1F79A8389838DA1282FAE
:101FE000332727FD3095432F532F8D8D9E8DAF8D39
:101FF000B8A1281739074A075B0781F48EA1282F5B
:10200000332727FD3095432F532F89A19AA1ABA1E8
:10201000BCA1281739074A075B0781F18D8D9E8D7A
:10202000AF8DB8A10197A109B1098D8F9E8FAF8F98
:10203000B8A38D8D9E8DAF8DB8A1BB230CF04CCF76
:1020400089E08FA389A19AA1ABA1BCA10197A109A5
:10205000B10989A39AA3ABA3BCA38EA1282F3327D0
:1020600027FD3095432F532F89A19AA1ABA1BCA185
:1020700082179307A407B5070CF013CFE9960FB6A4
:10208000F894DEBF0FBECDBFCF91DF910895DF93EF
:10209000CF9300D0CDB7DEB789836A8389816A8107
:1020A0000E942C090F900F90CF91DF910895DF933C
:1020B000CF93CDB7DEB7AB970FB6F894DEBF0FBEA8
:1020C000CDBF8AA76BA78AA59AE0692F0E94F8273F
:1020D00089A78AA59AE0692F0E94F827892F88A7E7
:1020E0008BA59AE0692F0E94F8278FA38BA59AE011
:1020F000692F0E94F827892F8EA31AA21BA21CA267
:102100001DA21E8E1F8E18A219A21D8E89A58823BE
:102110000CF411C289A58A300CF00DC28FA18A304F
:102120000CF009C28FA188230CF405C29AA58BA5D7
:1021300098170CF002C189A5992787FD9095A92FC2
:10214000B92F8AA39BA3ACA3BDA3E5C08D8D8F70CF
:102150008D8F8AA19BA1ACA1BDA1880F991FAA1F39
:10216000BB1F880F991FAA1FBB1F880F991FAA1F8B
:10217000BB1F880F991FAA1FBB1F982F8D8D892BFE
:102180008D8F88A5992787FD9095A92FB92F8E8FC0
:102190009F8FA8A3B9A3A9C08D8D807F8D8F9E8DA1
:1021A0008D8D892B8D8F80E090E0A0E2B1E4898F46
:1021B0009A8FAB8FBC8F698D7A8D8B8D9C8D20E033
:1021C00030E04AE755E40E941702DC01CB018D8B19
:1021D0009E8BAF8BB88F6D897E898F89988D20E01B
:1021E00030E040E85FE30E94710388232CF481E033
:1021F00090E09C8B8B8B3FC06D897E898F89988DF9
:1022000020E03FEF4FE757E40E94110318164CF50A
:10221000698D7A8D8B8D9C8D20E030E040E251E419
:102220000E941702DC01CB01BC01CD010E944100DC
:10223000DC01CB019C8B8B8B0FC080E991E09A8BEA
:10224000898B89899A890197F1F79A8B898B8B8978
:102250009C8901979C8B8B8B8B899C89009769F754
:1022600014C06D897E898F89988D0E944100DC01A0
:10227000CB019C8B8B8B8B899C89988B8F878F85CF
:1022800098890197F1F7988B8F8782E06D8D0E9476
:102290002C098EA1282F332727FD3095432F532F4C
:1022A0008E8D9F8DA8A1B9A1281739074A075B0712
:1022B00089F48FA1282F332727FD3095432F532FE3
:1022C0008AA19BA1ACA1BDA1281739074A075B07CA
:1022D00009F431C18E8D9F8DA8A1B9A10196A11DD0
:1022E000B11D8E8F9F8FA8A3B9A38E8D9F8DA8A19E
:1022F000B9A18A309105A105B1050CF44DCF18A6FE
:102300008AA19BA1ACA1BDA10196A11DB11D8AA36B
:102310009BA3ACA3BDA38FA1282F332727FD309506
:10232000432F532F8AA19BA1ACA1BDA12817390728
:102330004A075B070CF00ACFFEC089A5992787FDE5
:102340009095A92FB92F8AA39BA3ACA3BDA3E2C0EC
:102350008D8D8F708D8F8AA19BA1ACA1BDA1880F9F
:10236000991FAA1FBB1F880F991FAA1FBB1F880F89
:10237000991FAA1FBB1F880F991FAA1FBB1F982F49
:102380008D8D892B8D8F88A5992787FD9095A92FF5
:10239000B92F8E8F9F8FA8A3B9A3A8C08D8D807FE2
:1023A0008D8F9E8D8D8D892B8D8F80E090E0A0E2AA
:1023B000B1E48B879C87AD87BE876B857C858D85D7
:1023C0009E8520E030E04AE755E40E941702DC01D8
:1023D000CB018F839887A987BA876F817885898594
:1023E0009A8520E030E040E85FE30E947103882393
:1023F0002CF481E090E09E838D833FC06F817885CF
:1024000089859A8520E03FEF4FE757E40E9411034A
:1024100018164CF56B857C858D859E8520E030E017
:1024200040E251E40E941702DC01CB01BC01CD0166
:102430000E944100DC01CB019E838D830FC080E9A7
:1024400091E09C838B838B819C810197F1F79C8326
:102450008B838D819E8101979E838D838D819E814B
:10246000009769F714C06F81788589859A850E94E5
:102470004100DC01CB019E838D838D819E819A83F7
:10248000898389819A810197F1F79A83898382E010
:102490006D8D0E942C098EA1282F332727FD3095A2
:1024A000432F532F8E8D9F8DA8A1B9A128173907CF
:1024B0004A075B0781F48FA1282F332727FD30952A
:1024C000432F532F8AA19BA1ACA1BDA12817390787
:1024D0004A075B0781F18E8D9F8DA8A1B9A1019755
:1024E000A109B1098E8F9F8FA8A3B9A38E8D9F8D4F
:1024F000A8A1B9A1BB230CF051CF89E088A78AA17C
:102500009BA1ACA1BDA10197A109B1098AA39BA37D
:10251000ACA3BDA38FA1282F332727FD3095432FD0
:10252000532F8AA19BA1ACA1BDA182179307A40739
:10253000B5070CF00DCFAB960FB6F894DEBF0FBE0B
:10254000CDBFCF91DF910895DF93CF93CDB7DEB7A5
:10255000C154D0400FB6F894DEBF0FBECDBFFE0110
:10256000E05CFF4F8083FE01EF5BFF4F6083FE0165
:10257000E05CFF4F80819AE0692F0E94F8278FAFBF
:10258000FE01E05CFF4F80819AE0692F0E94F827EE
:10259000892F8EAFFE01EF5BFF4F80819AE0692F9C
:1025A0000E94F8278DAFFE01EF5BFF4F80819AE01C
:1025B000692F0E94F827892F8CAF18AE19AE1AAE7A
:1025C0001BAE1CAA1DAA1EAA1FAA1BAA1FA618AAD8
:1025D00019AA1AAA82E390E0A0E0B0E08BA79CA71A
:1025E000ADA7BEA78FAD88230CF4ADC28FAD8A30E6
:1025F0000CF0A9C28DAD8A300CF0A5C28DAD882338
:102600000CF4A1C2DE01AF5BBF4FFE01E05CFF4FE7
:1026100090818C9198170CF098C18FAD992787FD08
:102620009095A92FB92F88AF99AFAAAFBBAF7BC147
:102630008EAD992787FD9095A92FB92F8CAB9DABB7
:10264000AEABBFAB5AC11FA618AA19AA1AAA1BC1C2
:1026500088AD99ADAAADBBADFC01EC57FF4F9081A1
:1026600082E0692F0E942C0982E066E040E00E942F
:10267000C00682E065E041E00E94C00680E090E094
:10268000A0E2B1E48FA398A7A9A7BAA76FA178A5E4
:1026900089A59AA520E030E04AE755E40E94170298
:1026A000DC01CB018BA39CA3ADA3BEA36BA17CA13A
:1026B0008DA19EA120E030E040E85FE30E9471031D
:1026C00088232CF481E090E09AA389A33FC06BA1FA
:1026D0007CA18DA19EA120E03FEF4FE757E40E942F
:1026E000110318164CF56FA178A589A59AA520E0CD
:1026F00030E040E251E40E941702DC01CB01BC0152
:10270000CD010E944100DC01CB019AA389A30FC037
:1027100080E991E098A38F8F8F8D98A10197F1F7B1
:1027200098A38F8F89A19AA101979AA389A389A1C0
:102730009AA1009769F714C06BA17CA18DA19EA1FD
:102740000E944100DC01CB019AA389A389A19AA12F
:102750009E8F8D8F8D8D9E8D0197F1F79E8F8D8F22
:102760008CA99DA9AEA9BFA9FC01EC57FF4F908190
:1027700082E0692F0E942C0982E066E041E00E941D
:10278000C00682E065E040E00E94C00680E090E084
:10279000A0E2B1E4898F9A8FAB8FBC8F698D7A8D5F
:1027A0008B8D9C8D20E030E04AE755E40E941702B3
:1027B000DC01CB018D8B9E8BAF8BB88F6D897E89B1
:1027C0008F89988D20E030E040E85FE30E9471033C
:1027D00088232CF481E090E09C8B8B8B3FC06D892B
:1027E0007E898F89988D20E03FEF4FE757E40E9464
:1027F000110318164CF5698D7A8D8B8D9C8D20E018
:1028000030E040E251E40E941702DC01CB01BC0140
:10281000CD010E944100DC01CB019C8B8B8B0FC052
:1028200080E991E09A8B898B89899A890197F1F7E0
:102830009A8B898B8B899C8901979C8B8B8B8B893D
:102840009C89009769F714C06D897E898F89988D5E
:102850000E944100DC01CB019C8B8B8B8B899C8976
:10286000988B8F878F8598890197F1F7988B8F8741
:102870008FA598A9A9A9BAA90196A11DB11D8FA7D5
:1028800098ABA9ABBAAB2FA538A949A95AA98BA572
:102890009CA5ADA5BEA5281739074A075B0708F414
:1028A000D7CE8CAD282F332727FD3095432F532FBC
:1028B0008CA99DA9AEA9BFA9281739074A075B07AC
:1028C00089F48DAD282F332727FD3095432F532FC3
:1028D00088AD99ADAAADBBAD281739074A075B078C
:1028E00009F431C18CA99DA9AEA9BFA90196A11D6A
:1028F000B11D8CAB9DABAEABBFAB8CA99DA9AEA9F6
:10290000BFA98A309105A105B1050CF49CCE1EAE7D
:1029100088AD99ADAAADBBAD0196A11DB11D88AF23
:1029200099AFAAAFBBAF8DAD282F332727FD3095C8
:10293000432F532F88AD99ADAAADBBAD28173907EA
:102940004A075B070CF074CEFEC08FAD992787FD58
:102950009095A92FB92F88AF99AFAAAFBBAFE2C0AE
:102960008BA98F708BAB88AD99ADAAADBBAD880F2D
:10297000991FAA1FBB1F880F991FAA1FBB1F880F73
:10298000991FAA1FBB1F880F991FAA1FBB1F982F33
:102990008BA9892B8BAB8EAD992787FD9095A92F9D
:1029A000B92F8CAB9DABAEABBFABA8C08BA9807F62
:1029B0008BAB9CA98BA9892B8BAB80E090E0A0E22C
:1029C000B1E48B879C87AD87BE876B857C858D85C1
:1029D0009E8520E030E04AE755E40E941702DC01C2
:1029E000CB018F839887A987BA876F81788589857E
:1029F0009A8520E030E040E85FE30E94710388237D
:102A00002CF481E090E09E838D833FC06F817885B8
:102A100089859A8520E03FEF4FE757E40E94110334
:102A200018164CF56B857C858D859E8520E030E001
:102A300040E251E40E941702DC01CB01BC01CD0150
:102A40000E944100DC01CB019E838D830FC080E991
:102A500091E09C838B838B819C810197F1F79C8310
:102A60008B838D819E8101979E838D838D819E8135
:102A7000009769F714C06F81788589859A850E94CF
:102A80004100DC01CB019E838D838D819E819A83E1
:102A9000898389819A810197F1F79A83898382E0FA
:102AA0006BA90E942C098CAD282F332727FD309568
:102AB000432F532F8CA99DA9AEA9BFA92817390769
:102AC0004A075B0781F48DAD282F332727FD30950A
:102AD000432F532F88AD99ADAAADBBAD2817390749
:102AE0004A075B0781F18CA99DA9AEA9BFA90197EF
:102AF000A109B1098CAB9DABAEABBFAB8CA99DA9B5
:102B0000AEA9BFA9BB230CF051CF89E08EAF88AD31
:102B100099ADAAADBBAD0197A109B10988AF99AF35
:102B2000AAAFBBAF8DAD282F332727FD3095432F9C
:102B3000532F88AD99ADAAADBBAD82179307A407FB
:102B4000B5070CF00DCFCF5BDF4F0FB6F894DEBFAB
:102B50000FBECDBFCF91DF9108950F931F93DF93E9
:102B6000CF93CDB7DEB7CC58D0400FB6F894DEBFC8
:102B70000FBECDBFFE01E757FF4F80E090E0ACE015
:102B8000B2E480839183A283B3838E010B571F4FDE
:102B9000FE01E757FF4F608171818281938120E0C0
:102BA00030E04AE755E40E941702DC01CB01F8014E
:102BB00080839183A283B383FE01EB57FF4F608133
:102BC00071818281938120E030E040E85FE30E94E0
:102BD0007103882344F4FE01ED57FF4F81E090E03C
:102BE0009183808364C0FE01EB57FF4F6081718148
:102BF0008281938120E03FEF4FE757E40E94110369
:102C000018160CF043C0FE01E757FF4F6081718139
:102C10008281938120E030E040E251E40E9417027B
:102C2000DC01CB018E010D571F4FBC01CD010E946D
:102C30004100DC01CB01F801918380831FC0FE01BC
:102C4000EF57FF4F80E991E091838083FE01EF57BA
:102C5000FF4F808191810197F1F7FE01EF57FF4F00
:102C600091838083DE01AD57BF4FFE01ED57FF4FCB
:102C700080819181019711969C938E93FE01ED576F
:102C8000FF4F808191810097D1F627C08E010D57AB
:102C90001F4FFE01EB57FF4F60817181828193814D
:102CA0000E944100DC01CB01F80191838083DE01A9
:102CB000A158BF4FFE01ED57FF4F808191818D9349
:102CC0009C93FE01E158FF4F808191810197F1F7BC
:102CD000FE01E158FF4F9183808380E30E949D1C99
:102CE000FE01E558FF4F80E090E0A0EAB0E4808369
:102CF0009183A283B3838E0109581F4FFE01E558CB
:102D0000FF4F608171818281938120E030E04AE74A
:102D100055E40E941702DC01CB01F8018083918306
:102D2000A283B383FE01E958FF4F608171818281E4
:102D3000938120E030E040E85FE30E947103882344
:102D400044F4FE01EB58FF4F81E090E091838083D3
:102D500064C0FE01E958FF4F6081718182819381D7
:102D600020E03FEF4FE757E40E94110318160CF0E4
:102D700043C0FE01E558FF4F6081718182819381DC
:102D800020E030E040E251E40E941702DC01CB0178
:102D90008E010B581F4FBC01CD010E944100DC0188
:102DA000CB01F801918380831FC0FE01ED58FF4FD6
:102DB00080E991E091838083FE01ED58FF4F80818F
:102DC00091810197F1F7FE01ED58FF4F91838083C8
:102DD000DE01AB58BF4FFE01EB58FF4F8081918160
:102DE000019711969C938E93FE01EB58FF4F8081C3
:102DF00091810097D1F627C08E010B581F4FFE011D
:102E0000E958FF4F60817181828193810E94410066
:102E1000DC01CB01F80191838083DE01AF58BF4F05
:102E2000FE01EB58FF4F808191818D939C93FE01B1
:102E3000EF58FF4F808191810197F1F7FE01EF5824
:102E4000FF4F9183808380E30E949D1CFE01E35924
:102E5000FF4F80E090E0A0E8BFE380839183A283EE
:102E6000B3838E0107591F4FFE01E359FF4F608165
:102E700071818281938120E030E04AE755E40E942D
:102E80001702DC01CB01F80180839183A283B38315
:102E9000FE01E759FF4F608171818281938120E0BB
:102EA00030E040E85FE30E947103882344F4FE01B0
:102EB000E959FF4F81E090E09183808364C0FE0177
:102EC000E759FF4F608171818281938120E03FEF5C
:102ED0004FE757E40E94110318160CF043C0FE019F
:102EE000E359FF4F608171818281938120E030E05E
:102EF00040E251E40E941702DC01CB018E01095926
:102F00001F4FBC01CD010E944100DC01CB01F80143
:102F1000918380831FC0FE01EB59FF4F80E991E050
:102F200091838083FE01EB59FF4F8081918101974E
:102F3000F1F7FE01EB59FF4F91838083DE01A95920
:102F4000BF4FFE01E959FF4F808191810197119692
:102F50009C938E93FE01E959FF4F808191810097E8
:102F6000D1F627C08E0109591F4FFE01E759FF4FC7
:102F700060817181828193810E944100DC01CB01DB
:102F8000F80191838083DE01AD59BF4FFE01E959FD
:102F9000FF4F808191818D939C93FE01ED59FF4FEE
:102FA000808191810197F1F7FE01ED59FF4F9183E7
:102FB000808380E30E949D1CFE01E15AFF4F80E068
:102FC00090E0A0E8BFE380839183A283B3838E0166
:102FD000055A1F4FFE01E15AFF4F608171818281C6
:102FE000938120E030E04AE755E40E941702DC01BB
:102FF000CB01F80180839183A283B383FE01E55A5C
:10300000FF4F608171818281938120E030E040E850
:103010005FE30E947103882344F4FE01E75AFF4FE7
:1030200081E090E09183808364C0FE01E55AFF4F08
:10303000608171818281938120E03FEF4FE757E407
:103040000E94110318160CF043C0FE01E15AFF4F15
:10305000608171818281938120E030E040E251E41F
:103060000E941702DC01CB018E01075A1F4FBC01E1
:10307000CD010E944100DC01CB01F80191838083E6
:103080001FC0FE01E95AFF4F80E991E091838083E0
:10309000FE01E95AFF4F808191810197F1F7FE010E
:1030A000E95AFF4F91838083DE01A75ABF4FFE018B
:1030B000E75AFF4F80819181019711969C938E93DF
:1030C000FE01E75AFF4F808191810097D1F627C01A
:1030D0008E01075A1F4FFE01E55AFF4F6081718133
:1030E000828193810E944100DC01CB01F801918330
:1030F0008083DE01AB5ABF4FFE01E75AFF4F80814C
:1031000091818D939C93FE01EB5AFF4F80819181B9
:103110000197F1F7FE01EB5AFF4F9183808380E224
:103120000E949D1CFE01EF5AFF4F80E090E0A0E856
:10313000BFE380839183A283B3838E01035B1F4F20
:10314000FE01EF5AFF4F608171818281938120E0FF
:1031500030E04AE755E40E941702DC01CB01F80198
:1031600080839183A283B383FE01E35BFF4F608181
:1031700071818281938120E030E040E85FE30E942A
:103180007103882344F4FE01E55BFF4F81E090E08A
:103190009183808364C0FE01E35BFF4F6081718196
:1031A0008281938120E03FEF4FE757E40E941103B3
:1031B00018160CF043C0FE01EF5AFF4F6081718179
:1031C0008281938120E030E040E251E40E941702C6
:1031D000DC01CB018E01055B1F4FBC01CD010E94BC
:1031E0004100DC01CB01F801918380831FC0FE0107
:1031F000E75BFF4F80E991E091838083FE01E75B0D
:10320000FF4F808191810197F1F7FE01E75BFF4F4E
:1032100091838083DE01A55BBF4FFE01E55BFF4F1D
:1032200080819181019711969C938E93FE01E55BBD
:10323000FF4F808191810097D1F627C08E01055BF9
:103240001F4FFE01E35BFF4F60817181828193819B
:103250000E944100DC01CB01F80191838083DE01F3
:10326000A95BBF4FFE01E55BFF4F808191818D938C
:103270009C93FE01E95BFF4F808191810197F1F7FB
:10328000FE01E95BFF4F9183808388E20E94AD1BC2
:10329000FE01ED5BFF4F80E090E0A0E8BFE380839C
:1032A0009183A283B3838E01015C1F4FFE01ED5B0E
:1032B000FF4F608171818281938120E030E04AE795
:1032C00055E40E941702DC01CB01F8018083918351
:1032D000A283B383FE01FF96608171818281938115
:1032E00020E030E040E85FE30E94710388232CF483
:1032F00081E090E09EAF8DAF46C0FE01FF966081F9
:1033000071818281938120E03FEF4FE757E40E9473
:103310001103181664F5FE01ED5BFF4F60817181AA
:103320008281938120E030E040E251E40E94170264
:10333000DC01CB01BC01CD010E944100DC01CB01CD
:103340009EAF8DAF0FC080E991E09CAF8BAF8BAD8E
:103350009CAD0197F1F79CAF8BAF8DAD9EAD019702
:103360009EAF8DAF8DAD9EAD009769F716C0FE0183
:10337000FF9660817181828193810E944100DC010E
:10338000CB019EAF8DAF8DAD9EAD9AAF89AF89ADAC
:103390009AAD0197F1F79AAF89AF88E00E94AD1B13
:1033A00080E090E0A0E8BFE38DAB9EABAFABB8AFE1
:1033B0006DA97EA98FA998AD20E030E04AE755E4D9
:1033C0000E941702DC01CB0189AB9AABABABBCAB63
:1033D00069A97AA98BA99CA920E030E040E85FE3C5
:1033E0000E94710388232CF481E090E098AB8FA7B2
:1033F0003FC069A97AA98BA99CA920E03FEF4FE7BC
:1034000057E40E94110318164CF56DA97EA98FA9E7
:1034100098AD20E030E040E251E40E941702DC0168
:10342000CB01BC01CD010E944100DC01CB0198AB76
:103430008FA70FC080E991E09EA78DA78DA59EA5BF
:103440000197F1F79EA78DA78FA598A9019798AB33
:103450008FA78FA598A9009769F714C069A97AA9C1
:103460008BA99CA90E944100DC01CB0198AB8FA7DE
:103470008FA598A99CA78BA78BA59CA50197F1F771
:103480009CA78BA781E00E94AD1B80E090E0A0EAA2
:10349000B0E48FA398A7A9A7BAA76FA178A589A51B
:1034A0009AA520E030E04AE755E40E941702DC01CB
:1034B000CB018BA39CA3ADA3BEA36BA17CA18DA1CB
:1034C0009EA120E030E040E85FE30E947103882382
:1034D0002CF481E090E09AA389A33FC06BA17CA16A
:1034E0008DA19EA120E03FEF4FE757E40E9411031A
:1034F00018164CF56FA178A589A59AA520E030E0B3
:1035000040E251E40E941702DC01CB01BC01CD0175
:103510000E944100DC01CB019AA389A30FC080E97E
:1035200091E098A38F8F8F8D98A10197F1F798A3C1
:103530008F8F89A19AA101979AA389A389A19AA1A2
:10354000009769F714C06BA17CA18DA19EA10E9478
:103550004100DC01CB019AA389A389A19AA19E8F86
:103560008D8F8D8D9E8D0197F1F79E8F8D8F8CE0C5
:103570000E94AD1B80E090E0A0E8BFE3898F9A8FA6
:10358000AB8FBC8F698D7A8D8B8D9C8D20E030E068
:103590004AE755E40E941702DC01CB018D8B9E8B1C
:1035A000AF8BB88F6D897E898F89988D20E030E050
:1035B00040E85FE30E94710388232CF481E090E0EF
:1035C0009C8B8B8B3FC06D897E898F89988D20E085
:1035D0003FEF4FE757E40E94110318164CF5698D31
:1035E0007A8D8B8D9C8D20E030E040E251E40E948A
:1035F0001702DC01CB01BC01CD010E944100DC01BE
:10360000CB019C8B8B8B0FC080E991E09A8B898BCF
:1036100089899A890197F1F79A8B898B8B899C8983
:1036200001979C8B8B8B8B899C89009769F714C0C1
:103630006D897E898F89988D0E944100DC01CB01C4
:103640009C8B8B8B8B899C89988B8F878F85988996
:103650000197F1F7988B8F8786E00E94AD1B80E081
:1036600090E0A0E8BFE38B879C87AD87BE876B8522
:103670007C858D859E8520E030E04AE755E40E94F8
:103680001702DC01CB018F839887A987BA876F81E6
:10369000788589859A8520E030E040E85FE30E94E4
:1036A000710388232CF481E090E09E838D833FC0DA
:1036B0006F81788589859A8520E03FEF4FE757E451
:1036C0000E94110318164CF56B857C858D859E85AF
:1036D00020E030E040E251E40E941702DC01CB011F
:1036E000BC01CD010E944100DC01CB019E838D8392
:1036F0000FC080E991E09C838B838B819C81019733
:10370000F1F79C838B838D819E8101979E838D83AE
:103710008D819E81009769F714C06F8178858985B6
:103720009A850E944100DC01CB019E838D838D81AF
:103730009E819A83898389819A810197F1F79A837F
:103740008983C457DF4F0FB6F894DEBF0FBECDBFDD
:10375000CF91DF911F910F910895DF93CF93CDB754
:10376000DEB72F970FB6F894DEBF0FBECDBF8F87A1
:1037700081E063E040E00E94C00681E062E041E059
:103780000E94C0068F8582958F70982F917082E07D
:1037900060E0492F0E94C0068F85829586958770CC
:1037A000982F917082E061E0492F0E94C0068F85BA
:1037B0008295869586958370982F917082E062E05D
:1037C000492F0E94C0068F85982F991F9927991F0E
:1037D00082E064E0492F0E94C00681E062E040E0A0
:1037E0000E94C00681E062E041E00E94C0068F8531
:1037F000982F917082E060E0492F0E94C0068F856B
:103800008695982F917082E061E0492F0E94C00652
:103810008F8586958695982F917082E062E0492F7A
:103820000E94C0068F85869586958695982F917003
:1038300082E064E0492F0E94C00681E062E040E03F
:103840000E94C00680E090E0A0EAB0E48B879C87ED
:10385000AD87BE876B857C858D859E8520E030E0B9
:103860004AE755E40E941702DC01CB018F83988759
:10387000A987BA876F81788589859A8520E030E0AD
:1038800040E85FE30E94710388232CF481E090E01C
:103890009E838D833FC06F81788589859A8520E0DE
:1038A0003FEF4FE757E40E94110318164CF56B8564
:1038B0007C858D859E8520E030E040E251E40E94C9
:1038C0001702DC01CB01BC01CD010E944100DC01EB
:1038D000CB019E838D830FC080E991E09C838B8315
:1038E0008B819C810197F1F79C838B838D819E81D5
:1038F00001979E838D838D819E81009769F714C007
:103900006F81788589859A850E944100DC01CB0111
:103910009E838D838D819E819A83898389819A81FB
:103920000197F1F79A8389832F960FB6F894DEBF3B
:103930000FBECDBFCF91DF910895DF93CF93CDB769
:10394000DEB72F970FB6F894DEBF0FBECDBF8F87BF
:1039500081E063E040E00E94C00681E062E041E077
:103960000E94C0068F8582958F70982F917082E09B
:1039700060E0492F0E94C0068F85829586958770EA
:10398000982F917082E061E0492F0E94C0068F85D8
:103990008295869586958370982F917082E062E07B
:1039A000492F0E94C0068F85982F991F9927991F2C
:1039B00082E064E0492F0E94C00681E062E040E0BE
:1039C0000E94C00680E090E0A0EAB0E48B879C876C
:1039D000AD87BE876B857C858D859E8520E030E038
:1039E0004AE755E40E941702DC01CB018F839887D8
:1039F000A987BA876F81788589859A8520E030E02C
:103A000040E85FE30E94710388232CF481E090E09A
:103A10009E838D833FC06F81788589859A8520E05C
:103A20003FEF4FE757E40E94110318164CF56B85E2
:103A30007C858D859E8520E030E040E251E40E9447
:103A40001702DC01CB01BC01CD010E944100DC0169
:103A5000CB019E838D830FC080E991E09C838B8393
:103A60008B819C810197F1F79C838B838D819E8153
:103A700001979E838D838D819E81009769F714C085
:103A80006F81788589859A850E944100DC01CB0190
:103A90009E838D838D819E819A83898389819A817A
:103AA0000197F1F79A8389832F960FB6F894DEBFBA
:103AB0000FBECDBFCF91DF910895DF93CF93CDB7E8
:103AC000DEB72F970FB6F894DEBF0FBECDBF8F873E
:103AD00081E063E041E00E94C00681E062E041E0F5
:103AE0000E94C0068F8582958F70982F917082E01A
:103AF00060E0492F0E94C0068F8582958695877069
:103B0000982F917082E061E0492F0E94C0068F8556
:103B10008295869586958370982F917082E062E0F9
:103B2000492F0E94C0068F85982F991F9927991FAA
:103B300082E064E0492F0E94C00681E062E040E03C
:103B40000E94C00681E062E041E00E94C0068F85CD
:103B5000982F917082E060E0492F0E94C0068F8507
:103B60008695982F917082E061E0492F0E94C006EF
:103B70008F8586958695982F917082E062E0492F17
:103B80000E94C0068F85869586958695982F9170A0
:103B900082E064E0492F0E94C00681E062E040E0DC
:103BA0000E94C00680E090E0A0EAB0E48B879C878A
:103BB000AD87BE876B857C858D859E8520E030E056
:103BC0004AE755E40E941702DC01CB018F839887F6
:103BD000A987BA876F81788589859A8520E030E04A
:103BE00040E85FE30E94710388232CF481E090E0B9
:103BF0009E838D833FC06F81788589859A8520E07B
:103C00003FEF4FE757E40E94110318164CF56B8500
:103C10007C858D859E8520E030E040E251E40E9465
:103C20001702DC01CB01BC01CD010E944100DC0187
:103C3000CB019E838D830FC080E991E09C838B83B1
:103C40008B819C810197F1F79C838B838D819E8171
:103C500001979E838D838D819E81009769F714C0A3
:103C60006F81788589859A850E944100DC01CB01AE
:103C70009E838D838D819E819A83898389819A8198
:103C80000197F1F79A8389832F960FB6F894DEBFD8
:103C90000FBECDBFCF91DF910895DF93CF9300D0BA
:103CA0000F92CDB7DEB79B838A8319820EC08981BC
:103CB000282F30E08A819B81FC01E20FF31F808175
:103CC0000E945D1D89818F5F89838981282F30E063
:103CD0008A819B81FC01E20FF31F8081882339F7E1
:103CE0000F900F900F90CF91DF9108950F931F9336
:103CF000DF93CF93CDB7DEB72E970FB6F894DEBF24
:103D00000FBECDBF69877A878B879C875E874D877B
:103D10001D821E821F82188683E190E0A0E0B0E041
:103D200089839A83AB83BC8329813A818D859E8563
:103D3000FC01E20FF31F108289819A81AB81BC8163
:103D40000197A109B10989839A83AB83BC838985D3
:103D50009A85AB85BC85BB230CF04DC081E090E01B
:103D6000A0E0B0E08D839E83AF83B88789859A8574
:103D7000AB85BC85B095A095909581959F4FAF4F31
:103D8000BF4F89879A87AB87BC8735C029813A8125
:103D90008D859E858C01020F131F89859A85AB85C1
:103DA000BC852AE030E040E050E0BC01CD010E943B
:103DB0000528DC01CB01805DF801808389819A812F
:103DC000AB81BC810197A109B10989839A83AB8337
:103DD000BC8389859A85AB85BC852AE030E040E0CC
:103DE00050E0BC01CD010E940528DA01C901898794
:103DF0009A87AB87BC8789859A85AB85BC850097F8
:103E0000A105B10519F68D819E81AF81B885009716
:103E1000A105B105A1F029813A818D859E85FC011E
:103E2000E20FF31F8DE2808389819A81AB81BC818F
:103E30000197A109B10989839A83AB83BC838981E6
:103E40009A81AB81BC810196A11DB11D89839A83A2
:103E5000AB83BC8329813A818D859E85820F931F18
:103E60002E960FB6F894DEBF0FBECDBFCF91DF9177
:103E70001F910F910895DF93CF93CDB7DEB76A9767
:103E80000FB6F894DEBF0FBECDBF6F8B788F898FD2
:103E90009A8F8F89988DA98DBA8D0097A105B1054C
:103EA00099F08F89988DA98DBA8D9E012D5F3F4F16
:103EB000BC01CD01A9010E94761E9A838983898164
:103EC0009A810E944D1E03C080E30E945D1D6A9688
:103ED0000FB6F894DEBF0FBECDBFCF91DF9108952E
:103EE000DF93CF93CDB7DEB7A6970FB6F894DEBFBA
:103EF0000FBECDBF6BA37CA38DA39EA36BA17CA1A2
:103F00008DA19EA120E030E048EC52E40E9417020F
:103F1000DC01CB01BC01CD010E94A103DC01CB017E
:103F20008B879C87AD87BE878B859C85AD85BE853D
:103F30009E01215F3F4FBC01CD01A9010E94761E69
:103F40009A8789871D821E821F82188619821A828B
:103F50001B821C820BC08D819E81AF81B88501962A
:103F6000A11DB11D8D839E83AF83B8872D813E81B6
:103F700089859A85FC01E20FF31F8081882359F718
:103F80008D819E81AF81B8850297A109B1098D838A
:103F90009E83AF83B8878D819E81AF81B88500975E
:103FA000A105B10549F580E30E945D1D25C0298169
:103FB0003A814B815C818D819E81AF81B8852817C4
:103FC00039074A075B0719F48EE20E945D1D2981BB
:103FD0003A8189859A85FC01E20FF31F80810E9456
:103FE0005D1D89819A81AB81BC810196A11DB11DA6
:103FF00089839A83AB83BC8329813A8189859A8599
:10400000FC01E20FF31F8081882389F6A6960FB684
:10401000F894DEBF0FBECDBFCF91DF910895DF933F
:10402000CF9300D00F92CDB7DEB78A836B8380E841
:1040300089838A81882321F48B818058898314C0E5
:104040008A81813021F48B81805489830DC08A81DB
:10405000823021F48B818C56898306C08A8183301B
:1040600019F48B818C528983898180688983898145
:104070000E94AD1B0F900F900F90CF91DF9108958C
:10408000DF93CF9300D0CDB7DEB789836A83898170
:104090006A810E940F2080E20E945D1D0F900F90A8
:1040A000CF91DF910895DF93CF9300D0CDB7DEB7E6
:1040B0008A83198207C08A8169810E944020898190
:1040C0008F5F898389818431B0F30F900F90CF91F6
:1040D000DF910895DF93CF93CDB7DEB727970FB663
:1040E000F894DEBF0FBECDBF9C838B836D834E8360
:1040F0002F838E816F810E940F208D810E945D1D14
:104100001A8219828D81883030F58D81882F90E058
:10411000880F991F880F991F880F991F8A838A819A
:1041200080648A838A818F778A838A810E94AD1B0B
:1041300019820EC08981282F30E08B819C81FC017F
:10414000E20FF31F80810E945D1D89818F5F89834B
:104150008981883078F382E00E94AD1B27960FB6E4
:10416000F894DEBF0FBECDBFCF91DF910895DF93EE
:10417000CF93CDB7DEB7A1970FB6F894DEBF0FBED1
:10418000CDBF8FEF8B83CE0104969E8F8D8FEDED8B
:10419000F0E0F8A3EF8FF0E1F9A3EF8DF8A1008034
:1041A0008F8D98A1019698A38F8FED8DFE8D008243
:1041B0008D8D9E8D01969E8F8D8F99A1915099A383
:1041C000E9A1EE2351F787E08C8B86E08D8B85E0AB
:1041D0008E8B83E08F8B85E0888F84E0898F83E0EE
:1041E0008A8F82E08B8F1A826BC08A81282F30E001
:1041F000CE014496FC01E20FF31F908184E0692F09
:1042000040E00E94C006198246C08981282F30E014
:10421000CE014896FC01E20FF31F908183E0692FE5
:104220000E94CE078823A1F58981282F30E08A815A
:10423000482F50E0220F331F220F331FCE0101966B
:10424000820F931F840F951FFC01339680818B830F
:104250008981282F30E0CE014896FC01E20FF31F40
:10426000908183E0692F0E94CE07882389F38A8199
:10427000282F30E0CE014496FC01E20FF31F90811D
:1042800084E0692F41E00E94C006FB81FC8F1EC0C4
:1042900089818F5F89838981843008F4B6CF8A81D0
:1042A000282F30E0CE014496FC01E20FF31F9081ED
:1042B00084E0692F41E00E94C0068A818F5F8A8373
:1042C0008A81843008F491CF8B818C8F8C8DA1965C
:1042D0000FB6F894DEBF0FBECDBFCF91DF9108952A
:1042E0000F931F93DF93CF93CDB7DEB7CC57D0405A
:1042F0000FB6F894DEBF0FBECDBF0E949B0583E0D2
:104300006FEF0E942C090E94AD15CE018B599F4F73
:10431000E5969FAF8EAFE5978EE690E0E7969FAF6C
:104320008EAFE79797E0E8969FAFE897E796EEADF8
:10433000FFADE7970080E7968EAD9FADE7970196BA
:10434000E7969FAF8EAFE797E596EEADFFADE597A9
:104350000082E5968EAD9FADE5970196E5969FAFFD
:104360008EAFE597E8969FADE8979150E8969FAF9E
:10437000E897E896EFADE897EE23C1F6CE018459B1
:104380009F4FEA969FAF8EAFEA9785E790E0EC9655
:104390009FAF8EAFEC9797E0ED969FAFED97EC96C1
:1043A000EEADFFADEC970080EC968EAD9FADEC9737
:1043B0000196EC969FAF8EAFEC97EA96EEADFFAD0F
:1043C000EA970082EA968EAD9FADEA970196EA964B
:1043D0009FAF8EAFEA97ED969FADED979150ED961A
:1043E0009FAFED97ED96EFADED97EE23C1F6FE0191
:1043F000EC59FF4F1082FE01ED59FF4F108283E010
:1044000066E040E00E94C0060E940A2781E00E9408
:10441000AD1B80E060E00E940F20CE018B599F4FC2
:104420000E944D1E8AE30E945D1DFE01EC59FF4F64
:104430008081882F90E0A0E0B0E0BC01CD010E9417
:104440003B1F80E06AE00E940F20CE0184599F4FFD
:104450000E944D1E8AE30E945D1DFE01ED59FF4F33
:104460008081882F90E0A0E0B0E0BC01CD010E94E7
:104470003B1F8091900060E00E940F2087E00E9427
:104480005D1D8091910063E10E940F2086E00E94F3
:104490005D1D80919200882309F46EC280918E0088
:1044A00090918F00692F0E94402080918F00815051
:1044B00080938F0080918F00882309F052C29091E1
:1044C0008E0080919000981791F480918F008E5FFC
:1044D00080938F001092920080918E0090918F00B7
:1044E000692F0E940F2085E00E945D1D1EC483E09D
:1044F00066E041E00E94C006DE01AD59BF4FFE01FB
:10450000ED59FF4F80818F5F8C938AE080938F00FD
:1045100082E080938E0081E00E94AD1B81E065E027
:104520000E940F20CE0184599F4F0E944D1E80E6AD
:1045300090E00E944D1EFE01E15AFF4F80E090E0A6
:10454000A8E4B3E480839183A283B3838E01055AE8
:104550001F4FFE01E15AFF4F60817181828193817B
:1045600020E030E04AE755E40E941702DC01CB016D
:10457000F80180839183A283B383FE01E55AFF4F44
:10458000608171818281938120E030E040E85FE3C7
:104590000E947103882344F4FE01E75AFF4F81E033
:1045A00090E09183808364C0FE01E55AFF4F6081F3
:1045B00071818281938120E03FEF4FE757E40E94B1
:1045C000110318160CF043C0FE01E15AFF4F608141
:1045D00071818281938120E030E040E251E40E94C9
:1045E0001702DC01CB018E01075A1F4FBC01CD0120
:1045F0000E944100DC01CB01F801918380831FC040
:10460000FE01E95AFF4F80E991E091838083FE012A
:10461000E95AFF4F808191810197F1F7FE01E95A34
:10462000FF4F91838083DE01A75ABF4FFE01E75AF7
:10463000FF4F80819181019711969C938E93FE018B
:10464000E75AFF4F808191810097D1F627C08E01F4
:10465000075A1F4FFE01E55AFF4F60817181828129
:1046600093810E944100DC01CB01F801918380839A
:10467000DE01AB5ABF4FFE01E75AFF4F80819181A7
:104680008D939C93FE01EB5AFF4F8081918101979E
:10469000F1F7FE01EB5AFF4F9183808383E066E0E0
:1046A00040E00E94C006FE01EF5AFF4F80E090E01C
:1046B000A8E4B4E480839183A283B3838E01035B77
:1046C0001F4FFE01EF5AFF4F6081718182819381FC
:1046D00020E030E04AE755E40E941702DC01CB01FC
:1046E000F80180839183A283B383FE01E35BFF4FD4
:1046F000608171818281938120E030E040E85FE356
:104700000E947103882344F4FE01E55BFF4F81E0C2
:1047100090E09183808364C0FE01E35BFF4F608182
:1047200071818281938120E03FEF4FE757E40E943F
:10473000110318160CF043C0FE01EF5AFF4F6081C1
:1047400071818281938120E030E040E251E40E9457
:104750001702DC01CB018E01055B1F4FBC01CD01AF
:104760000E944100DC01CB01F801918380831FC0CE
:10477000FE01E75BFF4F80E991E091838083FE01BA
:10478000E75BFF4F808191810197F1F7FE01E75BC5
:10479000FF4F91838083DE01A55BBF4FFE01E55B88
:1047A000FF4F80819181019711969C938E93FE011A
:1047B000E55BFF4F808191810097D1F627C08E0184
:1047C000055B1F4FFE01E35BFF4F608171818281BA
:1047D00093810E944100DC01CB01F8019183808329
:1047E000DE01A95BBF4FFE01E55BFF4F8081918138
:1047F0008D939C93FE01E95BFF4F8081918101972E
:10480000F1F7FE01E95BFF4F9183808381E00E9415
:10481000AD1BFE01ED59FF4F8081833009F085C249
:1048200081E00E94AD1B81E065E00E940F20CE0177
:1048300084599F4F0E944D1E88E690E00E944D1EB5
:10484000FE01EC59FF4F1082FE01ED59FF4F10821F
:10485000FE01ED5BFF4F80E090E0AAE7B4E48083C7
:104860009183A283B3838E01015C1F4FFE01ED5B38
:10487000FF4F608171818281938120E030E04AE7BF
:1048800055E40E941702DC01CB01F801808391837B
:10489000A283B383FE01FF9660817181828193813F
:1048A00020E030E040E85FE30E94710388232CF4AD
:1048B00081E090E09EAF8DAF46C0FE01FF96608123
:1048C00071818281938120E03FEF4FE757E40E949E
:1048D0001103181664F5FE01ED5BFF4F60817181D5
:1048E0008281938120E030E040E251E40E9417028F
:1048F000DC01CB01BC01CD010E944100DC01CB01F8
:104900009EAF8DAF0FC080E991E09CAF8BAF8BADB8
:104910009CAD0197F1F79CAF8BAF8DAD9EAD01972C
:104920009EAF8DAF8DAD9EAD009769F716C0FE01AD
:10493000FF9660817181828193810E944100DC0138
:10494000CB019EAF8DAF8DAD9EAD9AAF89AF89ADD6
:104950009AAD0197F1F79AAF89AF81E00E94AD1B44
:10496000E4C180918E0090918F00692F0E940F20EA
:1049700085E00E945D1DD9C180918E0090918F00CD
:10498000692F0E94402080918F008F5F80938F005D
:1049900080918F00833109F0BEC190918E0080918B
:1049A0009100981799F480918F00825080938F0026
:1049B00081E08093920080918E0090918F00692F0A
:1049C0000E940F2085E00E945D1DAFC183E066E07C
:1049D00041E00E94C006DE01AC59BF4FFE01EC5918
:1049E000FF4F80818F5F8C938AE080938F0082E0FD
:1049F00080938E0081E00E94AD1B81E065E00E9403
:104A00000F20CE018B599F4F0E944D1E80E690E0F3
:104A10000E944D1E80E090E0A8E4B3E48DAB9EAB15
:104A2000AFABB8AF6DA97EA98FA998AD20E030E0FB
:104A30004AE755E40E941702DC01CB0189AB9AAB2F
:104A4000ABABBCAB69A97AA98BA99CA920E030E0EB
:104A500040E85FE30E94710388232CF481E090E03A
:104A600098AB8FA73FC069A97AA98BA99CA920E020
:104A70003FEF4FE757E40E94110318164CF56DA95C
:104A80007EA98FA998AD20E030E040E251E40E9479
:104A90001702DC01CB01BC01CD010E944100DC0109
:104AA000CB0198AB8FA70FC080E991E09EA78DA79F
:104AB0008DA59EA50197F1F79EA78DA78FA598A913
:104AC000019798AB8FA78FA598A9009769F714C095
:104AD00069A97AA98BA99CA90E944100DC01CB019C
:104AE00098AB8FA78FA598A99CA78BA78BA59CA5F2
:104AF0000197F1F79CA78BA783E066E040E00E9456
:104B0000C00680E090E0A8E4B4E48FA398A7A9A72A
:104B1000BAA76FA178A589A59AA520E030E04AE759
:104B200055E40E941702DC01CB018BA39CA3ADA32B
:104B3000BEA36BA17CA18DA19EA120E030E040E846
:104B40005FE30E94710388232CF481E090E09AA334
:104B500089A33FC06BA17CA18DA19EA120E03FEF66
:104B60004FE757E40E94110318164CF56FA178A582
:104B700089A59AA520E030E040E251E40E941702A6
:104B8000DC01CB01BC01CD010E944100DC01CB0165
:104B90009AA389A30FC080E991E098A38F8F8F8D8E
:104BA00098A10197F1F798A38F8F89A19AA10197F6
:104BB0009AA389A389A19AA1009769F714C06BA150
:104BC0007CA18DA19EA10E944100DC01CB019AA392
:104BD00089A389A19AA19E8F8D8F8D8D9E8D01971E
:104BE000F1F79E8F8D8F81E00E94AD1BFE01EC5985
:104BF000FF4F8081833009F098C081E00E94AD1B97
:104C000081E065E00E940F20CE018B599F4F0E94EA
:104C10004D1E88E690E00E944D1EFE01EC59FF4FAC
:104C20001082FE01ED59FF4F108280E090E0AAE76C
:104C3000B4E4898F9A8FAB8FBC8F698D7A8D8B8D01
:104C40009C8D20E030E04AE755E40E941702DC0129
:104C5000CB018D8B9E8BAF8BB88F6D897E898F89B1
:104C6000988D20E030E040E85FE30E9471038823E4
:104C70002CF481E090E09C8B8B8B3FC06D897E890A
:104C80008F89988D20E03FEF4FE757E40E94110392
:104C900018164CF5698D7A8D8B8D9C8D20E030E057
:104CA00040E251E40E941702DC01CB01BC01CD01BE
:104CB0000E944100DC01CB019C8B8B8B0FC080E9F3
:104CC00091E09A8B898B89899A890197F1F79A8B60
:104CD000898B8B899C8901979C8B8B8B8B899C8979
:104CE000009769F714C06D897E898F89988D0E941D
:104CF0004100DC01CB019C8B8B8B8B899C89988B31
:104D00008F878F8598890197F1F7988B8F8781E03E
:104D10000E94AD1B0AC080918E0090918F00692F78
:104D20000E940F2085E00E945D1D80E090E0A8ECCD
:104D3000B2E48B879C87AD87BE876B857C858D852C
:104D40009E8520E030E04AE755E40E941702DC012E
:104D5000CB018F839887A987BA876F8178858985EA
:104D60009A8520E030E040E85FE30E9471038823E9
:104D70002CF481E090E09E838D833FC06F81788525
:104D800089859A8520E03FEF4FE757E40E941103A1
:104D900018164CF56B857C858D859E8520E030E06E
:104DA00040E251E40E941702DC01CB01BC01CD01BD
:104DB0000E944100DC01CB019E838D830FC080E9FE
:104DC00091E09C838B838B819C810197F1F79C837D
:104DD0008B838D819E8101979E838D838D819E81A2
:104DE000009769F714C06F81788589859A850E943C
:104DF0004100DC01CB019E838D838D819E819A834E
:104E0000898389819A810197F1F79A8389830E9426
:104E10002E27FFCADF93CF93CDB7DEB72091900046
:104E200083E990E067E0422F20E00E946A20209111
:104E300091008BE990E066E0422F23E10E946A2016
:104E400020918E0030918F0083EA90E065E0422F40
:104E5000232F0E946A20CF91DF910895DF93CF9393
:104E60000F92CDB7DEB78FEF89830E94B720898379
:104E700089818F3F09F4B8C08981843061F58091C0
:104E80009200882399F08091900060E00E94402079
:104E9000809190008F5F809390008091900084308B
:104EA00008F4A2C081E0809390009EC080918E00A3
:104EB00090918F00692F0E94402080918E008F5F1B
:104EC00080938E0080918E00843008F48DC081E044
:104ED00080938E0089C089818A3261F58091920029
:104EE000882399F48091910063E10E944020809191
:104EF00091008F5F8093910080919100843008F43D
:104F000073C081E0809391006FC080918E0090917A
:104F10008F00692F0E94402080918E008F5F8093C8
:104F20008E0080918E00843008F45EC081E0809312
:104F30008E005AC08981873059F580919200813066
:104F400099F48091900060E00E9440208091900050
:104F500081508093900080919000882309F044C094
:104F600083E08093900040C080918E0090918F00EC
:104F7000692F0E94402080918E00815080938E0086
:104F800080918E00882381F583E080938E002CC071
:104F900089818F3249F580919200882391F4809124
:104FA000910063E10E9440208091910081508093A4
:104FB0009100809191008823B9F483E0809391005F
:104FC00013C080918E0090918F00692F0E94402025
:104FD00080918E00815080938E0080918E00882376
:104FE00019F483E080938E000F90CF91DF910895A4
:104FF00087FB082E062687FD819567FD619520D0E9
:105000000EF4919507FC8195089597FB092E0526CE
:105010000ED057FD04D020D00AD0001C38F4509593
:105020004095309521953F4F4F4F5F4F0895F6F7CC
:1050300090958095709561957F4F8F4F9F4F089504
:10504000991B79E004C0991F961708F0961B881FDA
:105050007A95C9F780950895A1E21A2EAA1BBB1B69
:10506000FD010DC0AA1FBB1FEE1FFF1FA217B30734
:10507000E407F50720F0A21BB30BE40BF50B661F4A
:10508000771F881F991F1A9469F76095709580950E
:1050900090959B01AC01BD01CF0108952F923F92E5
:1050A0004F925F926F927F928F929F92AF92BF9238
:1050B000CF92DF92EF92FF920F931F93CF93DF93E4
:1050C000CDB7DEB7CA1BDB0B0FB6F894DEBF0FBE41
:1050D000CDBF09942A88398848885F846E847D848E
:1050E0008C849B84AA84B984C884DF80EE80FD8090
:1050F0000C811B81AA81B981CE0FD11D0FB6F89406
:0E510000DEBF0FBECDBFED010895F894FFCFC6
:10510E0053636F726564210057696E7321004168A5
:10511E006D6564200048617A696D20000000000012
:10512E000000000000010203040506071011010A29
:10513E0001010103030303030303031818181818CE
:10514E0018181800000E0E0E0E00003F065B4F667C
:10515E006D7D077F6F3F065B4F666D7D077F6F3FEF
:10516E00065B4F666D7D077F6F3F065B4F666D7DFD
:10517E00077F6F3F065B4F666D7D077F6F070809E0
:0E518E002F0405062A0102032D43003D2B00CD
:00000001FF
